:100000000C9451030C9495030C9495030C94950354
:100010000C9495030C9495030C9495030C94950300
:100020000C9495030C9495030C9499090C945D0918
:100030000C9447190C9495030C9495030C94950318
:100040000C9495030C9495030C9495030C949503D0
:100050000C9495030C94D7180C9495030C94950369
:100060000C9495030C9495030C9495030C949503B0
:100070000C9495030C9495030C9495030C949503A0
:100080000C9495030C9495030C9495030C94950390
:100090000C9495030C9495030C9495030C94950380
:1000A0000C9495030C9495030C9495035354555656
:1000B0005F6061575C5D5E00595A5B586252630035
:1000C00050514F2E0A002530313662003A2000256B
:1000D000303258000A722F632030313233343536D3
:1000E0003738394142434445460A000A0025303238
:1000F0005800626F756E6365213A20004B65796226
:100100006F6172642073746172742E0A00555342D9
:1001100020636F6E666967757265642E0A0005015B
:100120000906A101050719E029E715002501950831
:1001300075018102950175088101050819012905DC
:100140009505750191029501750391010507190047
:1001500029FF150025FF950675088100C00631FFAF
:100160000974A1010975150025FF95207508810204
:100170000976150025FF952075089102C01201101F
:100180000100000008EDFE606001000102000109AD
:10019000024200020100A032090400000103010133
:1001A00000092111010001223F0007058103080019
:1001B00001090401000203000000092111010001EE
:1001C0002220000705820320000107050303200009
:1001D000010403090412036700650065006B0068F1
:1001E00000610063006B00000008033400780036F3
:1001F0000000000A002530325820006B6579626FDC
:100200006172645F7265706F72743A20000A002533
:10021000303258006B6579626F6172645F73657428
:100220005F6C65643A20003F00686F73745F6B65B4
:1002300079626F6172645F6C65647328293A202566
:10024000580A000A0A2D2D2D2D2D20537461747526
:1002500073202D2D2D2D2D0A0074696D65725F633D
:100260006F756E743A202530346C580A004743434A
:100270003A20342E332E33204156522D4C494243DE
:100280003A20312E362E37204156525F4152434894
:100290003A20617672350A004F5054494F4E533A16
:1002A000204C55464120434F4E534F4C4520434F21
:1002B0004D4D414E4420343039360A004255494CA8
:1002C000443A20756E6B6E6F776E202831393A3262
:1002D000303A3034204665622031392032303134B2
:1002E000290A005649443A20307846454544286753
:1002F00065656B6861636B29205049443A2030780A
:10030000363036302834783629205645523A203057
:1003100078303030310A00444553433A20742E6D12
:100320002E6B2E206B6579626F6172642066697234
:100330006D7761726520666F72203478360A000A24
:100340000A2D2D2D2D2D2056657273696F6E202D6F
:100350002D2D2D2D0A000A44454255473A206D6F38
:100360007573652064697361626C65642E0A000AA6
:1003700044454255473A206D6F75736520656E613F
:10038000626C65642E0A000A44454255473A206B68
:100390006579626F6172642064697361626C65641F
:1003A0002E0A000A44454255473A206B6579626F30
:1003B00061726420656E61626C65642E0A000A4495
:1003C000454255473A206D617472697820646973BB
:1003D00061626C65642E0A000A44454255473A2022
:1003E0006D617472697820656E61626C65642E0A55
:1003F000000A44454255473A20656E61626C656467
:100400002E0A000A44454255473A206469736162E6
:100410006C65642E0A006E6F7420737570706F7255
:100420007465642E0A000A0A4A756D7020746F2084
:10043000626F6F746C6F616465722E2E2E200043A4
:100440003E20000A456E74657220436F6E736F6CB8
:1004500065204D6F64650A00556E6C6F636B656453
:100460002E0A004C6F636B65642E0A005061757331
:100470003A096A756D7020746F20626F6F746C6FCB
:10048000616465720A00436170733A094C6F636B73
:10049000204B6579626F617264284368696C6420DF
:1004A00050726F6F66290A00505363723A09706F79
:1004B00077657220646F776E2F72656D6F7465203B
:1004C00077616B652D75700A00342F46343A0973D5
:1004D000776974636820746F204C61796572342089
:1004E0000A00332F46333A097377697463682074BE
:1004F0006F204C6179657233200A00322F46323A00
:100500000973776974636820746F204C6179657230
:1005100032200A00312F46313A09737769746368D3
:1005200020746F204C6179657231200A00302F46AB
:1005300031303A0973776974636820746F204C61B5
:1005400079657230200A00653A097072696E74200C
:10055000656570726F6D20636F6E6669670A007300
:100560003A097072696E74207374617475730A004D
:10057000743A097072696E742074696D65722063D3
:100580006F756E740A00763A097072696E74206431
:1005900065766963652076657273696F6E202620C3
:1005A000696E666F0A006D3A09746F67676C652043
:1005B0006D6F7573652064656275670A006B3A0933
:1005C000746F67676C65206B6579626F6172642018
:1005D00064656275670A00783A09746F67676C65CD
:1005E000206D61747269782064656275670A0064C1
:1005F0003A09746F67676C6520646562756720658A
:100600006E61626C650A00633A09656E74657220FA
:10061000636F6E736F6C65206D6F64650A000A0A04
:100620002D2D2D2D2D20436F6D6D616E642048653D
:100630006C70202D2D2D2D2D0A004553432F713A1E
:1006400009717569740A000A0A2D2D2D2D2D20437C
:100650006F6E736F6C652048656C70202D2D2D2D8D
:100660002D0A000A0025750020746F2000257500F2
:100670007377697463685F64656661756C745F6CD9
:10068000617965723A2000433E20003F000A5175AF
:10069000697420436F6E736F6C65204D6F64650ADB
:1006A000000011241FBECFEFDAE0DEBFCDBF04B6DD
:1006B00003FE24C08091960190919701A09198012A
:1006C000B09199018750904BA740B04BB9F410926C
:1006D000960110929701109298011092990114BE00
:1006E00084B7877F84BF88E10FB6F8948093600059
:1006F000109260000FBEE0E0F8E3099511E0A0E081
:10070000B1E0E0E2F8E302C005900D92A031B1073C
:10071000D9F711E0A0E1B1E001C01D92A639B107FF
:10072000E1F70E94B9060C940E1C0C940000FF9394
:10073000EF93E0918301F0918401309709F00995DE
:10074000EF91FF910895FC018591803011F0EFDF6A
:10075000FBCF0895FF27E0E230E247FF0CC0419550
:1007600097FF09C0EDE26095709580959095611DA9
:10077000711D811D911D27FF02C0219530E350E2BC
:10078000AA27660F771F881F991FAA1FA41710F0AA
:10079000A41B63955A95A9F7AA3008F0A95FA05D3C
:1007A000AF93F395611571058105910541F7ED3220
:1007B00011F4EF93F395F21718F43F93F395FBCFF1
:1007C0008F91B5DFFA95E1F70895E991F991859157
:1007D000803021F0853219F0AADFF9CF089520E0AA
:1007E000E89455915532C1F3503311F46894559102
:1007F0005A3348F4505390F3220F022E220F220F47
:10080000200D250FF4CF0EF421958991999153363F
:1008100019F3533729F1533559F1BC01882799272A
:10082000E8945C3621F489919991689455915436F5
:1008300039F446EF7EF077FF0DC08FEF9FEF0AC0CF
:1008400055374AE039F0583540E121F0523642E060
:1008500009F00895FF93EF937DDFEF91FF91B7CFFC
:10086000FF93EF93FC0181918030B9F360DFFBCF00
:10087000FF93EF9368DFF1CFDF93CF93CDB7DEB770
:100880002596A3DFCF91DF91089596E0899FF0012F
:100890001124E70FF11DEE0FFF1FEE0FFF1FE60FF4
:1008A000F11DE455FF4FE4918E2F0895E82FF0E0FD
:1008B000EE0FFF1FEC5BF04025913491C9010895C4
:1008C000E0E1F1E0E80FF11D808108958AB1807CBC
:1008D0008AB98BB1807C8BB908950E94660480B37D
:1008E0008C7F80BB81B3836081BB6E98769A87B121
:1008F0008F7387B988B1806C88B980E090E0FC0183
:10090000E05FFE4F1082FC01EA5EFE4F108201960E
:1009100086309105A1F70895BF92CF92DF92EF92B2
:10092000FF920F931F93CF93DF93C6E1D1E010E0C6
:1009300020EAB22E91E0C92ED12C05E08DEEE82EF2
:1009400080E0F82E1230A1F0133028F4112351F07A
:100950001130C9F40AC0143089F0143060F0153039
:1009600091F40FC0509A58980EC0519A59980BC0E4
:10097000529A5A9808C0539A5B9805C0549A5C984A
:1009800002C0559A5D988B2D8A95F1F79FB17999A0
:1009900002C032E001C030E0669902C024E001C02C
:1009A00020E086B18095881F8827881F880F880FD0
:1009B000880F9C259170932B922B982B88818917F7
:1009C00081F1988380910001882349F18091880109
:1009D00080FF04C082EF90E00E94A3038091880111
:1009E00080FF15C000D000D0EDB7FEB73196ADB78F
:1009F000BEB71296FC92EE9211978091000182830D
:100A000013820E943C040F900F900F900F908091E2
:100A1000880180FF04C08BEE90E00E94A303009346
:100A200000010E9466041F5F2196163009F08ACFEC
:100A300080910001882311F1815080930001882367
:100A400029F080EA9FE00197F1F718C08091160124
:100A500080931001809117018093110180911801FA
:100A600080931201809119018093130180911A01E2
:100A70008093140180911B018093150181E0DF9127
:100A8000CF911F910F91FF90EF90DF90CF90BF908B
:100A90000895EF92FF920F931F93CF93DF9384ED0E
:100AA00090E00E94A303C0E0D0E03FECE32E30E0F2
:100AB000F32E06EC10E000D000D0EDB7FEB7F282C6
:100AC000E182D483C3830E943C040F900F900F9067
:100AD0000F908CEC90E00E94A303FE01E05FFE4FBC
:100AE000808190E00E94D01900D000D0EDB7FEB711
:100AF00012830183948383830E943C040F900F90A0
:100B00000F900F9084EC90E00E94A3032196C630D2
:100B1000D10589F6DF91CF911F910F91FF90EF9052
:100B2000089580FF02C0229A01C022982A98089551
:100B3000089508950895089580918D01843061F598
:100B40009091E9008091EC0080FD02C080E001C03E
:100B500080E89F70982B82E08093E9008091EB0001
:100B600080FF04C08091EE0087FD06C09F709093C7
:100B7000E90008951092F1008091E80085FDFACF18
:100B80008091E80080FF05C08091E8008E77809317
:100B9000E8009F709093E900089580911C010895EA
:100BA0000895682F80918D01843009F05BC0909189
:100BB000E9008091EC0080FD02C080E001C080E887
:100BC000292F2F70282B82E08093E9008091EB0081
:100BD00080FF2AC08091EE0087FF26C080911D0112
:100BE000882321F08091E80085FF1EC010921D012E
:100BF0004091E4005091E50035E020C080918D01E6
:100C0000882381F1853071F18091EB0085FD0CC066
:100C10008091E4009091E5004817590779F033235B
:100C200041F481E080931D012F702093E9008FEF44
:100C3000089531504091E4005091E5008091E80022
:100C400085FFDCCF6093F1008091E80085FD05C051
:100C50008091E8008E778093E8002F702093E90060
:100C600080E008958FEF0895DF93CF9300D00F9227
:100C7000CDB7DEB7AC0180918D018430D9F481E02D
:100C80008093E90020E0215021F08091E80085FF69
:100C9000FACF5B834A8383E08983CE01019663E0C8
:100CA00070E040E050E00E94510B8091E8008E77A8
:100CB0008093E8000F900F900F90CF91DF910895EF
:100CC000DF93CF9300D00F92CDB7DEB7AC01809108
:100CD0008D018430D9F481E08093E90020E0215037
:100CE00021F08091E80085FFFACF5B834A8382E0A0
:100CF0008983CE01019663E070E040E050E00E94FD
:100D0000510B8091E8008E778093E8000F900F9050
:100D10000F90CF91DF9108950F931F93182F092FF4
:100D200080918D01843011F581E08093E90090E09D
:100D3000915021F08091E80085FFFACF812F902F0C
:100D400068E070E040E050E00E94510B8091E800C4
:100D50008E778093E800AFE1B1E0212F302FC901F9
:100D6000FC0188E001900D928150E1F71F910F91F5
:100D7000089584B7877F84BF88E10FB6F894809385
:100D80006000109260000FBE80E090E020E80FB697
:100D9000F89420936100809361000FBE0E94BC080C
:100DA0000E9443098091E20084608093E20081ED1B
:100DB00095E00E94FC18789480918D018430E1F7D1
:100DC0008DE091E00E94A3030E94830E81E091E0F8
:100DD0000E94260D8CEF90E00E94A3030CC00E949D
:100DE000251980918B01882331F00E9454198823A2
:100DF00011F00E941B0880918D01853081F30E94C3
:100E0000EF0DF9CF80918F01833009F455C0843004
:100E100030F4813071F0823009F0A5C08CC08A3086
:100E200009F479C08B3009F461C0893009F09BC0A6
:100E300020C080918E01813A09F095C08091E80030
:100E4000877F8093E8008091920190919301892B94
:100E500021F48FE191E068E003C080E090E060E081
:100E600070E00E94780A8091E8008B778093E80018
:100E7000089580918E01813209F075C080919201B0
:100E800090919301892B09F06EC08091E800877FD3
:100E90008093E80005C080918D01882309F463C028
:100EA0008091E80082FFF7CF8091F10080931C01D0
:100EB0008091E8008B7715C080918E01813A09F00E
:100EC00052C08091E800877F8093E8008091E8001D
:100ED00080FFFCCF80910B018093F1008091E800AE
:100EE0008E778093E8000E946908089580918E01B2
:100EF0008132C9F58091E800877F8093E8000E94E5
:100F0000690810920B0180919001882361F181E0C2
:100F100080930B01089580918E01813221F580919B
:100F2000E800877F8093E8000E9469088091910122
:100F300080931E01089580918E01813AA1F48091E1
:100F4000E800877F8093E8008091E80080FFFCCF75
:100F500080911E018093F1008091E8008E7780934C
:100F6000E8000E946908089581E061EC42E00E9477
:100F7000310882E061EC46E20E94310883E060ECD7
:100F800042E20E94310808950E9451190895DA0141
:100F90009330C1F0943030F4913051F0923009F038
:100FA00042C00BC0913219F1923209F03CC02CC002
:100FB000EDE7F1E022E130E03AC0EFE8F1E022E4D1
:100FC00030E035C0813049F0813018F0823059F579
:100FD00008C0E1EDF1E0849107C0E5EDF1E0849116
:100FE00003C0E9EEF1E08491282F30E020C06623B1
:100FF00019F06130C1F403C0E1EAF1E002C0EAEBAC
:10100000F1E029E030E013C0662319F0613059F4B3
:1010100005C0EEE1F1E02FE330E009C0EDE5F1E0DD
:1010200020E230E004C0E0E0F0E020E030E0ED93CA
:10103000FC93C901089580E189BD82E189BD09B4AD
:1010400000FEFDCF8091D8008F7D8093D8008091E5
:10105000E00082608093E0008091E00081FDFCCFA1
:101060000895382F282F2EC0822F8F708093E9008B
:10107000231721F4762F942F50E006C07091EC00D6
:101080009091ED005091F00091FF1BC08091EB001A
:101090008E7F8093EB008091ED008D7F8093ED003B
:1010A0008091EB0081608093EB007093EC00909353
:1010B000ED005093F0008091EE0087FD02C080E0CB
:1010C00008952F5F273080F23F703093E90081E070
:1010D000089580918E0188239CF404C080918D0135
:1010E0008823B9F08091E80082FFF8CF8091E80072
:1010F0008B778093E800089580918D01882349F0D3
:101100008091E80080FFF8CF8091E8008E7780938F
:10111000E80008954091E4005091E50024E68091B4
:10112000EC0080FF24C08091E80080FD1EC080910B
:101130008D01882311F482E00895853011F483E055
:1011400008958091EB0085FF02C081E008958091B1
:10115000E4009091E5008417950709F3222311F428
:1011600084E008952150AC01DACF80E008958091A9
:10117000E80082FFDCCFF9CF0E9450090E94580995
:10118000E0EEF0E0808181608083A8EDB0E08C919A
:101190008F778C9319BCE7EDF0E080818E7F8083A0
:1011A0008C918F7E8C9310928C010895DF93CF9356
:1011B00000D0CDB7DEB70E9450090E945809809137
:1011C000D8008F778093D8008091D8008068809372
:1011D000D8008091D8008F7D8093D80019BC1092E0
:1011E0008D011092890110928B0110928A0180E08A
:1011F00091E060E0AE014F5F5F4F0E94C707892B0F
:1012000031F0E981FA813796E491E0930C01809105
:10121000E0008B7F8093E0008091D8008160809314
:10122000D80080910C0190E028E030E040E003C05D
:101230004F5F220F331F28173907D0F34295407FA5
:10124000426080E060E00E9431088091E1008E7F82
:101250008093E1008091E20081608093E2008091C0
:10126000E20088608093E2008091E0008E7F8093AE
:10127000E0008091D80080618093D8000F900F909B
:10128000CF91DF910895E7EDF0E080818160808368
:1012900084E082BF81E080938C010E94D60808958B
:1012A000E8EDF0E080818E7F80831092E200089567
:1012B0001092DA001092E10008951F920F920FB67B
:1012C0000F9211241F932F933F934F935F936F932C
:1012D0007F938F939F93AF93BF93EF93FF9310915F
:1012E000E9008091EC001092E9008091F000877F86
:1012F0008093F00078940E94A40B1092E9008091F2
:10130000F00088608093F0001F701093E900FF9157
:10131000EF91BF91AF919F918F917F916F915F916D
:101320004F913F912F911F910F900FBE0F901F90E3
:1013300018951F920F920FB60F9211242F933F937F
:101340004F935F936F937F938F939F93AF93BF93CD
:10135000EF93FF938091E10082FF0BC08091E20048
:1013600082FF07C08091E1008B7F8093E1000E94A3
:101370009C058091DA0080FF1FC08091D80080FF1B
:101380001BC08091DA008E7F8093DA008091D900B3
:1013900080FF0DC080E189BD82E189BD09B400FEF6
:1013A000FDCF81E080938D010E94980505C019BC96
:1013B00010928D010E9499058091E10080FF19C073
:1013C0008091E20080FF15C08091E2008E7F8093C3
:1013D000E2008091E20080618093E2008091D80079
:1013E00080628093D80019BC85E080938D010E94B3
:1013F0009B058091E10084FF2EC08091E20084FF74
:101400002AC080E189BD82E189BD09B400FEFDCF1B
:101410008091D8008F7D8093D8008091E1008F7EED
:101420008093E1008091E2008F7E8093E2008091C2
:10143000E20081608093E20080918901882331F489
:101440008091E30087FD02C081E001C084E08093C9
:101450008D010E94C4078091E10083FF38C0809114
:10146000E20083FF34C08091E100877F8093E10038
:1014700082E080938D01109289018091E1008E7F3E
:101480008093E1008091E2008E7F8093E200809162
:10149000E20080618093E20080910C0190E040E0E6
:1014A00028E030E003C04F5F220F331F28173907B1
:1014B000D0F34295407F426080E060E00E943108B6
:1014C0008091F00088608093F0000E949A05FF915F
:1014D000EF91BF91AF919F918F917F916F915F91AC
:1014E0004F913F912F910F900FBE0F901F90189525
:1014F000E82F40919401509195014617570750F4F9
:101500002E2F392FC901DC0180910C01E82FF0E06A
:1015100090E045C06115710511F0AB01F1CF8091EC
:10152000E8008E778093E80040E050E0E9CF8091BA
:101530008D01882309F445C0853009F444C08091A9
:10154000E80083FF02C081E008958091E80082FDF9
:1015500032C08091E80080FF22C08091F30090911A
:10156000F200782F60E0292F30E0262B372B07C0C0
:101570008D918093F100415050402F5F3F4F4115B6
:10158000510519F02E173F0798F390E02E173F07EB
:1015900009F491E08091E8008E778093E80041158E
:1015A000510529F6992319F606C080918D018823EB
:1015B00041F0853041F08091E80082FFF6CF80E075
:1015C000089582E0089583E008959C01409194017C
:1015D000509195014617570738F4F90180910C0195
:1015E000A82FB0E090E046C06115710511F0AB0185
:1015F000F4CF8091E8008E778093E80040E050E0DF
:10160000ECCF80918D01882309F447C0853009F41F
:1016100046C08091E80083FF02C081E00895809178
:10162000E80082FD34C08091E80080FF23C08091F3
:10163000F3009091F200782F60E0292F30E0262B04
:10164000372B08C084918093F1003196415050406F
:101650002F5F3F4F4115510519F02A173B0790F3B3
:1016600090E02A173B0709F491E08091E8008E771B
:101670008093E8004115510521F6992309F0C1CF67
:1016800006C080918D01882341F0853041F0809122
:10169000E80082FFF6CF80E0089582E0089583E0BD
:1016A0000895BF92CF92DF92EF92FF920F931F9314
:1016B000CF93DF93182F092F7B016A010E948A08BC
:1016C000B82E8823B1F5812F902F9C01E901C11418
:1016D000D10439F0F60180819181E81AF90AC80F26
:1016E000D91F00E010E022C08091E80085FD16C0FF
:1016F0008091E8008E778093E800C114D10449F00E
:10170000F60180819181800F911F9183808385E014
:1017100011C00E948A08882349F00CC089918093E7
:10172000F1000894E108F1080F5F1F4FE114F10484
:10173000D9F68B2DDF91CF911F910F91FF90EF90F4
:10174000DF90CF90BF9008950F931F93DF93CF93B7
:10175000CDB7DEB7AC970FB6F894DEBF0FBECDBFE6
:10176000EEE8F1E08091F100819321E0E639F207A3
:10177000C9F70E9402078091E80083FF4EC1809163
:101780008E0130918F01353009F487C0363040F436
:101790003130C9F1313070F0333009F03EC133C01F
:1017A000383009F4FAC0393009F40BC1363009F089
:1017B00034C198C0803821F0823809F02EC108C0A9
:1017C00090918A0180918B01882399F0926011C0D9
:1017D000809192018F708093E9008091EB0090E0FE
:1017E00025E0969587952A95E1F7982F91701092AC
:1017F000E9008091E800877F8093E8009093F100F2
:101800001092F100D6C0882319F0823009F005C18A
:1018100090E08F719070009721F0029709F0FDC061
:101820000CC080919001813009F0F7C010928B01BB
:10183000333069F580938B012AC080919001882311
:1018400031F5209192012F7009F4E7C02093E9004F
:101850008091EB0080FF1BC0333021F48091EB00BE
:10186000806213C08091EB0080618093EB0081E087
:1018700090E002C0880F991F2A95E2F78093EA0052
:101880001092EA008091EB0088608093EB00109248
:10189000E9008091E800877F8FC0882309F0BDC0F0
:1018A000109190011F770FB7F8948091E800877F1F
:1018B0008093E8000E9469088091E80080FFFCCFD7
:1018C0008091E3008078812B8093E300806880938F
:1018D000E300112311F482E001C083E080938D01C5
:1018E0000FBF9BC08058823008F097C08091900154
:1018F0009091910123E08C3D920709F034C083E080
:101900008C838AE28B837FB7F894DE0115966EE0B4
:1019100040E050E011E2E62FF0E010935700849190
:1019200040FF03C082958F706F5F8F70282F30E06B
:101930008A3018F0C901C79602C0C901C0968D93BC
:101940009D934F5F5F4F4431510529F77FBF8091D1
:10195000E800877F8093E800CE0103966AE270E09A
:101960000E94780A14C060919201AE014F5F5F4FF0
:101970000E94C707BC01009709F44FC08091E8009E
:10198000877F8093E80089819A810E94E50A80918F
:10199000E8008B778093E80040C0803809F03DC0B4
:1019A0008091E800877F8093E8008091890180938F
:1019B000F1008091E8008E778093E8000E9469082A
:1019C0002CC0882351F580E091E060E0AE014F5FCC
:1019D0005F4F0E94C707892B01F190919001E98127
:1019E000FA817196E491E917C0F08091E800877F51
:1019F0008093E800909389010E9469088091890191
:101A0000882331F48091E30087FD02C081E001C0AA
:101A100084E080938D010E94B4078091E80083FFE9
:101A20000AC08091EB0080628093EB008091E80017
:101A3000877F8093E800AC960FB6F894DEBF0FBEA8
:101A4000CDBFCF91DF911F910F91089590932C01FD
:101A500080932B01089580912B0190912C01089582
:101A6000E0912B01F0912C01309711F480E0089562
:101A70000190F081E02D099508959C018091290144
:101A800090912A012817390779F030932A01209381
:101A90002901E0912B01F0912C01309729F006806B
:101AA000F781E02DC901099508959C0180912701D6
:101AB000909128012817390779F030932801209355
:101AC0002701E0912B01F0912C01309729F000843F
:101AD000F185E02DC90109950895EF92FF920F93CA
:101AE0001F93CF93DF93182F092FE0912B01F091D3
:101AF0002C013097D9F10280F381E02D0995809176
:101B0000880182FF33C080FF04C08BEF91E00E9408
:101B1000A303812F902F9C01E90110E085EFE82EAF
:101B200081E0F82E8091880180FF14C000D000D0A1
:101B3000EDB7FEB73196ADB7BEB71296FC92EE92F6
:101B400011978881828313820E943C040F900F902A
:101B50000F900F901F5F2196183021F78091880118
:101B600080FF04C083EF91E00E94A303DF91CF9137
:101B70001F910F91FF90EF9008951F93182F809160
:101B8000880182FF27C080FF04C084E192E00E94A8
:101B9000A3038091880180FF15C000D000D0EDB76D
:101BA000FEB731968FE092E0ADB7BEB712969C9328
:101BB0008E931197128313820E943C040F900F9012
:101BC0000F900F908091880180FF04C08DE092E01B
:101BD0000E94A303812F0E9491051F910895BF9237
:101BE000CF92DF92EF92FF920F931F93DF93CF93E9
:101BF000CDB7DEB72A970FB6F894DEBF0FBECDBFC4
:101C00000E948C04EE24FF24BE2C8E2D0E946004C2
:101C1000C82EF701E25DFE4FD080D82609F43FC000
:101C20008091880181FF02C00E94490500E010E018
:101C3000ED2DF0E0CF01002E02C0959587950A9416
:101C4000E2F780FF27C00E94CA180983BA826C2D70
:101C500070E0002E02C0759567950A94E2F76170F6
:101C600070706B8381609D838C83402F5B2D782FF8
:101C70008D810E94FB11F701E25DFE4F81E090E053
:101C8000002E02C0880F991F0A94E2F720812827AE
:101C900020831DC00F5F1F4F0430110559F60894B3
:101CA000E11CF11C86E0E816F10409F0ADCF0E94BA
:101CB000CA182FEF2E832F8318868160782F9A877A
:101CC00089874FEF5FEF60E08A850E94FB111091DA
:101CD0002D010E94300D181731F00E94300D8093B5
:101CE0002D010E94BD0D2A960FB6F894DEBF0FBEDF
:101CF000CDBFCF91DF911F910F91FF90EF90DF90BB
:101D0000CF90BF9008950E94C1180E946D0408955D
:101D1000DF93CF9300D000D00F92CDB7DEB70F90F6
:101D20000F900F900F900F90CF91DF910895DF9358
:101D3000CF9300D000D000D0CDB7DEB726960FB637
:101D4000F894DEBF0FBECDBFCF91DF9108950E9402
:101D50004E16892F82958F70282F30E02C30310558
:101D60004CF42A30310574F42250304022303105D1
:101D700038F408C02C30310539F02F30310521F00E
:101D800080E0089581E008959F70892F90E023E01E
:101D9000969587952A95E1F7817008950E94E1173D
:101DA0000E94B6170E94F91708950E94D1170E9449
:101DB000CE0E0895882321F00E94CA170E94F917B9
:101DC0000895882321F00E94C4170E94F9170895EE
:101DD000282F882309F44EC0823859F40E94300D10
:101DE00081FF48C089E30E9485170E94F91789E3A3
:101DF0000CC0833869F40E94300D80FF3BC083E53E
:101E00000E9485170E94F91783E50E94A3171FC03F
:101E1000843859F40E94300D82FF2CC087E40E9460
:101E200085170E94F91787E4F0CF8450813A10F4A7
:101E3000822FEBCF822F805E883060F4277081E0A4
:101E400090E001C0880F2A95EAF70E94CA170E9405
:101E5000F9170895822F855A833028F480E090E0A6
:101E60000E943D0D0895285A233120F480E090E02F
:101E70000E94550D08951F93182F882309F4C6C09A
:101E8000823859F40E94300D81FDC0C089E30E9460
:101E900085170E94F91789E30CC0833879F40E94F2
:101EA000300D80FDB3C083E50E9485170E94F917AD
:101EB00083E50E94A3170E94F917A8C0843859F43B
:101EC0000E94300D82FDA2C087E40E9485170E9407
:101ED000F91787E4EECF8450813A50F4812F0E94A5
:101EE000411A882309F092C0812F0E948517E3CF01
:101EF000812F805E883050F4177081E090E001C03F
:101F0000880F1A95EAF70E94C417D5CF812F855AFA
:101F10008330A0F4153A19F481E890E00CC0163A29
:101F200019F482E890E007C0173A19F080E090E0D9
:101F300002C083E890E00E943D0D68C0812F885A5E
:101F4000833108F063C0183A19F482EE90E05CC067
:101F5000193A19F489EE90E057C01A3A19F48AEE4A
:101F600090E052C01B3A19F485EB90E04DC01C3A4A
:101F700019F486EB90E048C01D3A19F487EB90E025
:101F800043C0103B19F48CEC90E03EC01E3A19F4AB
:101F90008DEC90E039C01F3A19F483E891E034C029
:101FA000113B19F48AE891E02FC0123B19F482E941
:101FB00091E02AC0133B19F484E991E025C0143B59
:101FC00019F481E292E020C0153B19F483E292E01B
:101FD0001BC0163B19F484E292E016C0173B19F4BB
:101FE00085E292E011C0183B19F486E292E00CC041
:101FF000193B19F487E292E007C01A3B19F080E020
:1020000090E002C08AE292E00E94550D1F9108956F
:10201000AF92BF92CF92DF92EF92FF920F931F93F6
:10202000DF93CF93CDB7DEB72A970FB6F894DEBF14
:102030000FBECDBF5C01DE011196FC0185E0019071
:102040000D928150E1F7FB80F501058102950F703B
:10205000DE011696FE01319685E001900D928150C9
:10206000E1F73E812F8189859A85892B09F4B2C1D8
:102070002F3F09F089C13F3F09F086C1ABC18D2DCB
:102080008F70F0EFDF2211F4182F03C0182F129574
:10209000107FFF2049F0112309F450C1812F0E94C5
:1020A000D4170E94F9174AC18C2D0E94E80E112303
:1020B00009F490C1812F0E94DA170E94F9178AC192
:1020C0008D2D8F7020EFD22290E2D91611F4182FA7
:1020D00003C0182F1295107FCC2021F0E1E0CE161E
:1020E000E9F412C0FF2041F0002311F1013001F5A5
:1020F000812F0E94E4176EC1002319F0013009F40A
:1021000069C10E94E7171BC0FF2021F0063008F0CC
:1021100061C10EC0053008F05DC111C0FF2061F043
:10212000002331F0F501858180FF08C18F70858320
:10213000812F0E94E10E4EC1002309F00AC1812FB8
:102140000E94DA0E47C18D2D837009F05EC0FF201A
:1021500009F040C12C2D229526952770220F220FC1
:102160008C2D8F70E82EFF2400E010E0022E04C0BA
:10217000EE0CFF1C001F111F0A94D2F7C4FC05C00F
:1021800060E070E080E090E00FC06FE070E080E021
:1021900090E004C0660F771F881F991F2A95D2F719
:1021A0006095709580959095D694D694F3E0DF2253
:1021B0004D2D50E041305105A9F0423051051CF43D
:1021C000452B49F007C14230510589F04330510594
:1021D00009F000C113C06E297F29802B912B0E942A
:1021E0006017F8C06E297F29802B912B0BC06E29B8
:1021F0007F29802B912B0E944F17ECC00E94601703
:10220000C801B7010E947117E5C090E0FF2011F4EA
:1022100096958795817009F4DDC02C2D2295269521
:102220002770220F220F8C2D8F70E82EFF2400E0E4
:1022300010E0022E04C0EE0CFF1C001F111F0A94B8
:10224000D2F7C4FC05C060E070E080E090E00FC011
:102250006FE070E080E090E004C0660F771F881F99
:10226000991F2A95D2F76095709580959095D69490
:10227000D69423E0D2224D2D50E041305105A9F0F3
:10228000423051051CF4452B49F0A4C042305105A1
:1022900089F04330510509F09DC013C06E297F2994
:1022A000802B912B0E94B31695C06E297F29802B1D
:1022B000912B0BC06E297F29802B912B0E94A21697
:1022C00089C00E94B316C801B7010E94C41682C01B
:1022D00081EFC816D9F08C1520F090EFC91651F592
:1022E00007C0E2EFCE16B9F0F3EFCF1619F518C01C
:1022F000FF2021F0053008F06DC003C0063008F063
:1023000069C08D2D8F710E94D51664C08D2D8F717F
:10231000FF2029F119C08D2D8F71FF20A9F01FC05A
:10232000FF2029F08D2D8F710E942D1753C00E9420
:102330003D1750C0FF2059F0002321F08C2D0E9442
:102340003B0F48C08D2D8F710E94111743C0002391
:1023500021F08C2D0E94E80E3DC08D2D8F710E94C2
:10236000F11638C02FE0D222C5016C2D4D2D0E94F0
:1023700021180E94F7152EC08FE0D822C5016C2DC0
:102380004D2D0E94241826C089819A810E944E16E4
:102390006C010E944D160E944C168D2D82958F70F7
:1023A00090E08830910509F4CECE893091053CF457
:1023B000823091050CF463CE049764F481CE8C30A6
:1023C000910581F28D3091051CF40A971CF080CFA5
:1023D0000F9791F22A960FB6F894DEBF0FBECDBFCD
:1023E000CF91DF911F910F91FF90EF90DF90CF90F1
:1023F000BF90AF900895DF93CF93CDB7DEB72B9703
:102400000FB6F894DEBF0FBECDBF342F4F83252FFC
:10241000588769877A878B87472F582FFE01319617
:1024200086E0DF011D928A95E9F76B8339832A8361
:102430004C835D83432F522F8D819E810E943815DE
:102440002B960FB6F894DEBF0FBECDBFCF91DF91B4
:1024500008950F931F9300913B0115C010E0F80100
:10246000EE0FFF1FE00FF11FEE0FFF1FE45CFE4FAA
:102470004081518162817381848195810E94970E90
:102480000F5F1F4F077080913A01081739F71F91AE
:102490000F910895409134015091350160913601BA
:1024A0007091370180913801909139010E94970E07
:1024B00008950F931F93CF93DF93809139018295F5
:1024C0008F7009F06DC080913601882309F468C0CF
:1024D00060913B0100913A014091370150913801E0
:1024E0001091350170913401EA01C095D09555C025
:1024F0004115510509F44FC01F3F49F480E090E0B9
:102500007F3F11F481E090E0882309F044C0262F3A
:1025100030E0F901EE0FFF1FE20FF31FDF01AA0FFA
:10252000BB1FA45CBE4F11968C911197181799F59B
:102530008C91781781F5EE0FFF1FE25CFE4F8081D2
:10254000882349F513968D919C91149784179507CC
:1025500018F0841B950B02C08C0F9D1F883C9105C1
:10256000D0F4809139018F70806180933901F90135
:10257000EE0FFF1FE20FF31FEE0FFF1FEF5BFE4F8B
:1025800080818F708061808384E391E00E940810D5
:102590000E94291205C06F5F6770601709F0A8CF0D
:1025A000DF91CF911F910F910895DF92EF92FF92EB
:1025B0000F931F93DF93CF93CDB7DEB76B970FB613
:1025C000F894DEBF0FBECDBF8C01DC011296DC900B
:1025D00012974C9111965C9111971396ED90FC9087
:1025E0001497209137013091380160913501709135
:1025F00034012115310509F4DBC16F3F09F003C235
:102600007F3F09F000C2D4C1E216F30640F0C701D3
:10261000821B930B883C910508F0EEC008C0209502
:1026200030952E0D3F1D283C310508F0E5C0809106
:102630003901807F09F095C06F3F09F0EAC17F3F03
:1026400009F0E7C115C0741799F4DD2089F4809171
:1026500039018F708061809339010E944A1284E3AE
:1026600091E00E94081080913901F8018583BCC176
:10267000FD82EC825A834983DB82DE011696FE01DD
:10268000319685E001900D928150E1F76885DE0179
:102690001B96FE01369685E001900D928150E1F780
:1026A0002C853B858E859F85892B09F451C02F3F52
:1026B00009F0B3C13F3F09F0B0C14AC0FD82EC82CE
:1026C0005A834983DB82DE011B96FE01319685E049
:1026D00001900D928150E1F7FC847B856D8580919E
:1026E0003B0190913A011FC0282F30E0F901EE0F15
:1026F000FF1FE20FF31FDF01AA0FBB1FA45CBE4F39
:1027000011968C911197F81651F48C91781739F431
:10271000EE0FFF1FE25CFE4F80816817C9F42F5F48
:102720003F4F822F87708917F9F68DC19F7059F03E
:10273000442349F459C19F7031F0D80115968C910A
:10274000807F09F451C1405E483008F44DC148C152
:10275000DD2009F449C180913901816080933901FC
:1027600043C16F3F09F05DC17F3F09F05AC114C0FA
:10277000741791F4DD2081F480913901F80185838B
:10278000C8010E940810A4E3B1E0F80186E00190BE
:102790000D928150E1F720C15A83498389819A8142
:1027A0000E94A70E882309F41BC1DD2009F418C17B
:1027B00030913901832F82958F7090E002979CF0C1
:1027C0009091350120913401FE01709686E0DF0181
:1027D0001D928A95E9F7998B288BFC8AEB8A3D8BB1
:1027E000CF010E940810A4E3B1E0F80186E0019057
:1027F0000D928150E1F7EEC080913901807FA9F4FC
:102800007E2DFD82EC825A834983DB826D2D8D8182
:102810000E94880E04E311E0C8010E94081086E0BF
:10282000F80111928A95E9F7C0C06F3F09F0FDC029
:102830007F3F09F0FAC014C0741791F4DD2081F4D1
:1028400080913901D80115968C93C8010E94081017
:10285000E4E3F1E086E0DF011D928A95E9F7BEC06E
:102860005A83498389819A810E94A70E882309F49B
:10287000B7C0DD2009F4B4C030913901832F8295AF
:102880008F7090E002979CF0909135012091340177
:10289000FE01769686E0DF011D928A95E9F79F8B0F
:1028A0002E8BFA8EE98E3B8FCF010E940810A4E395
:1028B000B1E0F80186E001900D928150E1F78AC005
:1028C0006F3F09F0B6C07F3F09F0B3C071C0E21698
:1028D000F30640F0C701821B930B883C910508F07A
:1028E00053C008C0209530952E0D3F1D283C310562
:1028F00008F04AC0DD2009F473C06F3F09F09FC0A3
:102900007F3F09F09CC029C0741739F590913901B7
:1029100090FD1AC0892F82958F70B1F0F8019583D0
:102920008F3031F08F5F8295807F9F70982B9583D9
:10293000C8010E940810A4E3B1E0F80186E001900C
:102940000D928150E1F748C0A4E3B1E0F80186E0C0
:1029500001900D928150E1F741C05A8349838981EA
:102960009A810E94A70E882349F0A4E3B1E0F80100
:1029700086E001900D928150E1F72CC080913901E1
:102980008160809339012CC07E2DFD82EC825A83B8
:102990004983DB826D2D8D810E94880EE4E3F1E096
:1029A00086E0DF011D928A95E9F70E944A121CC059
:1029B000DD20B1F05A83498389819A810E94A70E54
:1029C000882371F0A4E3B1E0F80186E001900D9254
:1029D0008150E1F70E9459120E944A1281E005C01D
:1029E000C8010E940810FACF80E06B960FB6F894E9
:1029F000DEBF0FBECDBFCF91DF911F910F91FF9032
:102A0000EF90DF90089580913601882309F458CF24
:102A1000FBCD651709F02CCE16CE613009F498CEA7
:102A20004DCE651709F0B8CEA3CE651709F018CFC3
:102A300003CF80913601882309F0BACF48CF6517BC
:102A400009F08BCF61CF5A83498389819A810E9493
:102A50004E16482F892F82958F70282F30E0223014
:102A600031050CF463CE243031050CF0B9CF63CEC0
:102A70000F931F93DF93CF93CDB7DEB72C970FB68D
:102A8000F894DEBF0FBECDBF4F83588769877A8722
:102A90008B879C878E01095F1F4FC8010E94D5124A
:102AA0008823D9F028853F818A859B85892B09F465
:102AB0006BC02F3F49F480E090E03F3F11F481E08C
:102AC00090E0882309F060C04F81588569857A8538
:102AD0008B859C850E94970E57C0DE011196F801E8
:102AE00086E001900D928150E1F7F981EA814C81F5
:102AF0005D814115510509F447C0EF3F09F04CC015
:102B0000FF3F09F049C040C0F983EA835D834C83ED
:102B1000F901EE0FFF1FE20FF31FEE0FFF1FE45C42
:102B2000FE4FDE01119686E00D9001928150E1F793
:102B300060933A010E94291227C0919FC00111247D
:102B4000845C9E4F0E94D512882309F445C0809171
:102B50003B0190E0FC01EE0FFF1FE80FF91FEE0FA5
:102B6000FF1FE45CFE4F408151816281738184814B
:102B700095810E94970E80913B0190E001968770AD
:102B8000907080933B0101C016E090913B018091D1
:102B90003A01981791F620C080913A01282F30E031
:102BA0002F5F3F4FB90167707070215030408091A6
:102BB0003B0190E06817790709F0A6CF0E94D50E77
:102BC00010923A0110923B01E4E3F1E086E0DF016C
:102BD0001D928A95E9F7D8CF2C960FB6F894DEBFF0
:102BE0000FBECDBFCF91DF911F910F910895EF924E
:102BF000FF921F93CF93DF93EC01009709F446C037
:102C000010E080EAE82E8FE0F82EFE0121969491E4
:102C1000943740F4943040F5913069F0923009F0E7
:102C200035C00EC09537E1F0953778F0892F84587C
:102C3000803760F51DC0FE012196E4918E2F15C0EE
:102C4000FE012196E4918E2F15C0FE01249104C04F
:102C5000C7010197F1F721502223D1F721960CC02B
:102C6000FE012196149108C0892F0E943B0F04C0D9
:102C7000892F8F770E94E80E212F04C0C70101978A
:102C8000F1F72150222309F4C0CFF8CFDF91CF9183
:102C90001F91FF90EF90089508950895CF92DF92CD
:102CA000EF92FF920F931F93CF93DF936C01E0900D
:102CB0006C01F0906D0100916E0110916F01809197
:102CC000700190917101A0917201B0917301E82A95
:102CD000F92A0A2B1B2BCFE1D0E0D801C7010C2E1B
:102CE00004C0B695A795979587950A94D2F78170F9
:102CF0009070892B41F08C2FB6010E9425189C0101
:102D00008130910551F421978FEFCF3FD80729F7F4
:102D100080E0B6010E9425189C01822FDF91CF919F
:102D20001F910F91FF90EF90DF90CF9008956093E7
:102D300070017093710180937201909373010E94EE
:102D4000CE0E08959B01AC016091700170917101EC
:102D500080917201909173016227732784279527D0
:102D60000E94971608959B01AC01609170017091CB
:102D70007101809172019091730162237323842306
:102D800095230E94971608959B01AC0160917001F4
:102D9000709171018091720190917301622B732B7C
:102DA000842B952B0E949716089521E030E040E097
:102DB00050E004C0220F331F441F551F8A95D2F7DD
:102DC0008091700190917101A0917201B091730195
:102DD000282739274A275B27CA01B9010E9497167D
:102DE000089521E030E040E050E004C0220F331F9E
:102DF000441F551F8A95D2F72095309540955095E0
:102E00008091700190917101A0917201B091730154
:102E1000282339234A235B23CA01B9010E9497164C
:102E2000089521E030E040E050E004C0220F331F5D
:102E3000441F551F8A95D2F78091700190917101BE
:102E4000A0917201B0917301282B392B4A2B5B2B77
:102E5000CA01B9010E949716089521E030E040E0D0
:102E600050E004C0220F331F441F551F8A95D2F72C
:102E7000CA01B9010E949716089560E070E080E0F1
:102E800090E00E949716089560936C0170936D0115
:102E900080936E0190936F010E94CE0E08959B0166
:102EA000AC0160916C0170916D0180916E01909107
:102EB0006F0162277327842795270E94441708957E
:102EC0009B01AC0160916C0170916D0180916E016C
:102ED00090916F0162237323842395230E944417EA
:102EE00008959B01AC0160916C0170916D0180911E
:102EF0006E0190916F01622B732B842B952B0E9496
:102F0000441708950E9444170895382FA0910D0189
:102F1000B0910E01FD0120E08FEF9281931791F0A7
:102F20008F3F19F4992309F4822F2F5F31962630B1
:102F3000A1F78F3F39F0992787FD9095A80FB91F0A
:102F400012963C930895982F20E030E0E0910D0117
:102F5000F0910E01E20FF31F8281891709F41282AA
:102F60002F5F3F4F2630310589F7089581E090E0CB
:102F7000E0910D01F0910E01E80FF91F108201960A
:102F800088309105A9F7089590917C01982B909332
:102F90007C010895809590917C01982390937C0109
:102FA000089510927C01089590917E01982B909342
:102FB0007E010895809590917E01982390937E01E3
:102FC000089510927E01089580937D0108951092D6
:102FD0007D010895E0910D01F0910E0120E091E056
:102FE000818181112F5F9F5F31969830C9F7822FC1
:102FF0000895E0910D01F0910E0180917C01808394
:10300000E0910D01F0910E01808190917E01892B5C
:10301000808390917D01992369F0E0910D01F091F9
:103020000E018081892B80830E94EA17882311F08A
:103030000E94E71780910D0190910E010E946D0D85
:10304000089580E090E0089508950E944504282F97
:10305000805C803220F4822F0E94560408952B3B1E
:1030600050F4283A10F5253A98F4243068F42130C9
:1030700009F083C07FC0203E08F47FC0283E20F0C6
:10308000203F08F47AC073C0822F90E09C0177C083
:10309000253A19F421E830E472C0263A19F023E801
:1030A00030E46DC022E830E46AC0283A19F422EE18
:1030B00034E465C0293A19F429EE34E460C02A3AB0
:1030C00019F42AEE34E45BC02B3A19F425EB34E40E
:1030D00056C02C3A19F426EB34E451C02D3A19F4B9
:1030E00027EB34E44CC0203B19F42CEC34E447C00B
:1030F0002E3A19F42DEC34E442C02F3A19F423E8A7
:1031000035E43DC0213B19F42AE835E438C0223BC0
:1031100019F422E935E433C0233B19F424E935E4FA
:103120002EC0243B19F421E236E429C0253B19F4D2
:1031300023E236E424C0263B19F424E236E41FC01F
:10314000273B19F425E236E41AC0283B19F426E29D
:1031500036E415C0293B19F427E236E410C02A3BB7
:1031600019F020E034E40BC02AE236E408C030E075
:10317000306505C021E030E002C020E030E0C90148
:10318000089582E084BD93E095BD9AEF97BD80934A
:103190006E0008958FB7F89420917F0130918001DF
:1031A00040918101509182018FBFC90108951F9202
:1031B0000F920FB60F9211248F939F93AF93BF93EB
:1031C00080917F0190918001A0918101B091820155
:1031D0000196A11DB11D80937F0190938001A09362
:1031E0008101B0938201BF91AF919F918F910F9018
:1031F0000FBE0F901F9018959093840180938301C8
:1032000008950E94BC08F89480E29EE420E931E031
:10321000F9013197F1F70197D9F787E090EBA7E033
:10322000B0EB8093960190939701A0939801B0938F
:1032300099012CE088E190E00FB6F894A89580936E
:1032400060000FBE20936000FFCFF894A89523E4A0
:1032500088E190E00FB6F894A895809360000FBEC7
:103260002093600083B7817F846083BF83B78160D0
:1032700083BF7894889583B78E7F83BF88E10FB62C
:10328000F89480936000109260000FBE08951F9222
:103290000F920FB60F9211240F900FBE0F901F9038
:1032A00018950E94D50E08951F930E948C0410E07B
:1032B000812F0E946004882311F081E004C01F5F09
:1032C0001630B1F780E01F9108959B01AC01AA2749
:1032D000BB270097A105B10521F4DA01C90160E01F
:1032E00001C060E1292F3A2F4B2F552721153105B9
:1032F0004105510519F49C01AD0101C0685FDA0177
:10330000C90174E0B695A795979587957A95D1F7F9
:103310000097A105B10519F4DA01C90101C06C5F7C
:103320009C01AD01F2E05695479537952795FA95A2
:10333000D1F7211531054105510519F49C01AD0165
:1033400001C06E5F56954795379527952115310534
:103350004105510509F06F5F862F0895282F2295AA
:103360002F708295807F282B30E0C9018C7C907073
:10337000959587959595879523733070220F331F08
:10338000220F331F822B282F30E0C9018A7A9070D8
:103390009595879525753070220F331F822B0895E0
:1033A0000F931F93192F0E94AE19082F812F0E948F
:1033B000AE19502F40E0282F30E0242B352BC901C7
:1033C0001F910F91089580E0089587E496E00E9490
:1033D000A3038AE396E00E94A30308951F93182F86
:1033E00080E796E00E94A30360916C0170916D01EB
:1033F00080916E0190916F010E94651900D000D0FC
:10340000EDB7FEB731962DE636E0ADB7BEB71296F2
:103410003C932E931197828313820E943C040F9059
:103420000F900F900F9088E696E00E94A30300D0C3
:1034300000D0EDB7FEB7319685E696E0ADB7BEB7E2
:1034400012969C938E931197128313820E943C04D0
:103450000F900F900F900F9083E696E00E94A303C9
:1034600061E070E080E090E004C0660F771F881F85
:10347000991F1A95D2F70E9482170E94D50E1F91AC
:1034800008951F93182F80918501882321F08130A2
:1034900009F0BFC1A1C1E0910D01F0910E01808141
:1034A000823209F0B8C1812F0E94E319882309F004
:1034B00089C1173240F51E3108F07DC1103109F481
:1034C000FBC0113180F4173009F4BDC0183020F46E
:1034D000163009F07AC190C01B3009F446C01E3086
:1034E00009F073C1D3C0173109F41EC1183120F49B
:1034F000163109F06AC13FC1193109F4FCC01B3112
:1035000009F063C1AFC0183381F1193350F4193297
:1035100009F44FC1153309F44CC1173209F055C1F4
:1035200048C1163420F41A3308F048C104C01834D6
:1035300009F04BC174C00E942B0D892B69F00E94C9
:103540002B0D909387018093860180E090E00E948C
:10355000260D83E694E0E5C0809186019091870175
:103560000E94260D88E594E0DCC08EE196E00E9482
:10357000A30387E096E00E94A3038FEE95E00E94EC
:10358000A30387ED95E00E94A3038DEB95E00E94D5
:10359000A30386EA95E00E94A30386E895E00E94D3
:1035A000A30380E795E00E94A3038FE595E00E94C6
:1035B000A30387E495E00E94A3038DE295E00E94B7
:1035C000A30384E195E00E94A3038BEF94E00E94A3
:1035D000A30382EE94E00E94A30389EC94E00E948E
:1035E000A30388EA94E00E94A30386E894E00E9483
:1035F000A3038CE694E095C080918801807F80933E
:1036000088010E94E51983E494E00E94A3038FE3FC
:1036100094E00E94A30381E080938501D3C00E94BF
:10362000D50E86E294E00E94A30380E197E220E9B0
:1036300031E0F9013197F1F70197D9F70E940119AB
:1036400086E194E06EC08091880180FF08C083E02D
:1036500094E00E94A30380918801807F46C081EF9F
:1036600093E03EC080918801982F96959095917037
:10367000292F220F8D7F822B80938801992319F0A7
:1036800088ED93E02DC08EEB93E04BC080918801D4
:10369000982F9695969590959170292F220F220F2D
:1036A0008B7F822B80938801992319F083EA93E022
:1036B00017C087E893E035C080918801982F9695D0
:1036C0009695969590959170292F220F220F220F93
:1036D000877F822B80938801992351F08FE693E0B6
:1036E0000E94A303809188018160809388016AC051
:1036F00086E593E016C08FE393E00E94A30387E181
:1037000093E00E94A30383EE92E00E94A3038CEB5C
:1037100092E00E94A30388E992E00E94A3038DE651
:1037200092E00E94A3034EC020917F01309180015E
:10373000409181015091820100D000D000D089E5F4
:1037400092E0ADB7BEB712969C938E931197EDB7EA
:10375000FEB723833483458356830E943C0481E073
:1037600090E02DB73EB72A5F3F4F0FB6F8943EBFAB
:103770000FBE2DBF51C083E492E00E94A3030E94BC
:10378000300D00D000D0EDB7FEB7319629E232E01F
:10379000ADB7BEB712963C932E93119782831382D6
:1037A0000E943C0481E090E00F900F900F900F90EA
:1037B00033C080E005C0812F8D5102C0812F895315
:1037C0000E94EE1981E090E027C087E292E00E941B
:1037D000A30380E090E020C0143171F0153118F49B
:1037E0001B3089F404C0193239F0183361F40E9497
:1037F000E51987E896E009C08DE896E00E94A303EA
:103800001092850104C08BE896E00E94A30381E03A
:1038100003C01092850180E01F910895F894FFCFB6
:1038200005CD058C06D0056006340601087401003C
:00000001FF
